{
  "contractName": "Lottery",
  "abi": [
    {
      "inputs": [],
      "stateMutability": "nonpayable",
      "type": "constructor"
    },
    {
      "inputs": [],
      "name": "manager",
      "outputs": [
        {
          "internalType": "address",
          "name": "",
          "type": "address"
        }
      ],
      "stateMutability": "view",
      "type": "function",
      "constant": true
    },
    {
      "inputs": [
        {
          "internalType": "uint256",
          "name": "",
          "type": "uint256"
        }
      ],
      "name": "players",
      "outputs": [
        {
          "internalType": "address payable",
          "name": "",
          "type": "address"
        }
      ],
      "stateMutability": "view",
      "type": "function",
      "constant": true
    },
    {
      "stateMutability": "payable",
      "type": "receive",
      "payable": true
    },
    {
      "inputs": [],
      "name": "getBalance",
      "outputs": [
        {
          "internalType": "uint256",
          "name": "",
          "type": "uint256"
        }
      ],
      "stateMutability": "view",
      "type": "function",
      "constant": true
    },
    {
      "inputs": [],
      "name": "random",
      "outputs": [
        {
          "internalType": "uint256",
          "name": "",
          "type": "uint256"
        }
      ],
      "stateMutability": "view",
      "type": "function",
      "constant": true
    },
    {
      "inputs": [],
      "name": "pickWinner",
      "outputs": [],
      "stateMutability": "nonpayable",
      "type": "function"
    },
    {
      "inputs": [],
      "name": "allPlayers",
      "outputs": [
        {
          "internalType": "address payable[]",
          "name": "",
          "type": "address[]"
        }
      ],
      "stateMutability": "view",
      "type": "function",
      "constant": true
    }
  ],
  "bytecode": "0x608060405234801561001057600080fd5b50336000806101000a81548173ffffffffffffffffffffffffffffffffffffffff021916908373ffffffffffffffffffffffffffffffffffffffff1602179055506109fd806100606000396000f3fe6080604052600436106100595760003560e01c806312065fe014610112578063481c6a751461013d5780635d495aea146101685780635ec01e4d1461017f578063b0ec8094146101aa578063f71d96cb146101d55761010d565b3661010d57670de0b6b3a764000034146100a8576040517f08c379a000000000000000000000000000000000000000000000000000000000815260040161009f90610681565b60405180910390fd5b6001339080600181540180825580915050600190039060005260206000200160009091909190916101000a81548173ffffffffffffffffffffffffffffffffffffffff021916908373ffffffffffffffffffffffffffffffffffffffff160217905550005b600080fd5b34801561011e57600080fd5b50610127610212565b60405161013491906106ba565b60405180910390f35b34801561014957600080fd5b50610152610273565b60405161015f9190610716565b60405180910390f35b34801561017457600080fd5b5061017d610297565b005b34801561018b57600080fd5b50610194610476565b6040516101a191906106ba565b60405180910390f35b3480156101b657600080fd5b506101bf6104b0565b6040516101cc9190610801565b60405180910390f35b3480156101e157600080fd5b506101fc60048036038101906101f79190610854565b61053e565b6040516102099190610890565b60405180910390f35b60008060009054906101000a900473ffffffffffffffffffffffffffffffffffffffff1673ffffffffffffffffffffffffffffffffffffffff163373ffffffffffffffffffffffffffffffffffffffff161461026d57600080fd5b47905090565b60008054906101000a900473ffffffffffffffffffffffffffffffffffffffff1681565b60008054906101000a900473ffffffffffffffffffffffffffffffffffffffff1673ffffffffffffffffffffffffffffffffffffffff163373ffffffffffffffffffffffffffffffffffffffff16146102ef57600080fd5b6003600180549050101561030257600080fd5b600061030c610476565b905060006001805490508261032191906108da565b9050600181815481106103375761033661090b565b5b9060005260206000200160009054906101000a900473ffffffffffffffffffffffffffffffffffffffff16600260006101000a81548173ffffffffffffffffffffffffffffffffffffffff021916908373ffffffffffffffffffffffffffffffffffffffff160217905550600260009054906101000a900473ffffffffffffffffffffffffffffffffffffffff1673ffffffffffffffffffffffffffffffffffffffff166108fc6103e6610212565b9081150290604051600060405180830381858888f19350505050158015610411573d6000803e3d6000fd5b50600067ffffffffffffffff81111561042d5761042c61093a565b5b60405190808252806020026020018201604052801561045b5781602001602082028036833780820191505090505b506001908051906020019061047192919061057d565b505050565b600044426001805490506040516020016104929392919061098a565b6040516020818303038152906040528051906020012060001c905090565b6060600180548060200260200160405190810160405280929190818152602001828054801561053457602002820191906000526020600020905b8160009054906101000a900473ffffffffffffffffffffffffffffffffffffffff1673ffffffffffffffffffffffffffffffffffffffff16815260200190600101908083116104ea575b5050505050905090565b6001818154811061054e57600080fd5b906000526020600020016000915054906101000a900473ffffffffffffffffffffffffffffffffffffffff1681565b8280548282559060005260206000209081019282156105f6579160200282015b828111156105f55782518260006101000a81548173ffffffffffffffffffffffffffffffffffffffff021916908373ffffffffffffffffffffffffffffffffffffffff1602179055509160200191906001019061059d565b5b5090506106039190610607565b5090565b5b80821115610620576000816000905550600101610608565b5090565b600082825260208201905092915050565b7f706c7a20706179206f6e6c792031000000000000000000000000000000000000600082015250565b600061066b600e83610624565b915061067682610635565b602082019050919050565b6000602082019050818103600083015261069a8161065e565b9050919050565b6000819050919050565b6106b4816106a1565b82525050565b60006020820190506106cf60008301846106ab565b92915050565b600073ffffffffffffffffffffffffffffffffffffffff82169050919050565b6000610700826106d5565b9050919050565b610710816106f5565b82525050565b600060208201905061072b6000830184610707565b92915050565b600081519050919050565b600082825260208201905092915050565b6000819050602082019050919050565b6000610768826106d5565b9050919050565b6107788161075d565b82525050565b600061078a838361076f565b60208301905092915050565b6000602082019050919050565b60006107ae82610731565b6107b8818561073c565b93506107c38361074d565b8060005b838110156107f45781516107db888261077e565b97506107e683610796565b9250506001810190506107c7565b5085935050505092915050565b6000602082019050818103600083015261081b81846107a3565b905092915050565b600080fd5b610831816106a1565b811461083c57600080fd5b50565b60008135905061084e81610828565b92915050565b60006020828403121561086a57610869610823565b5b60006108788482850161083f565b91505092915050565b61088a8161075d565b82525050565b60006020820190506108a56000830184610881565b92915050565b7f4e487b7100000000000000000000000000000000000000000000000000000000600052601260045260246000fd5b60006108e5826106a1565b91506108f0836106a1565b925082610900576108ff6108ab565b5b828206905092915050565b7f4e487b7100000000000000000000000000000000000000000000000000000000600052603260045260246000fd5b7f4e487b7100000000000000000000000000000000000000000000000000000000600052604160045260246000fd5b6000819050919050565b61098461097f826106a1565b610969565b82525050565b60006109968286610973565b6020820191506109a68285610973565b6020820191506109b68284610973565b60208201915081905094935050505056fea2646970667358221220d23a047c5ccac77f6aae1c0c2e5e8cb0131f01b996af9ea01fe4ec351e0bbf9664736f6c634300080b0033",
  "immutableReferences": {},
  "source": "// SPDX-License-Identifier: MIT\r\npragma solidity >=0.5.0 <0.9.0;\r\n\r\ncontract Lottery {address public manager;\r\n     address payable[] public players;\r\n       address payable winner;\r\n     constructor(){\r\n         manager=msg.sender;\r\n     }\r\n     receive() external payable{\r\n         require(msg.value==1 ether,\"plz pay only 1\");\r\n         players.push(payable(msg.sender));\r\n     }\r\n     function getBalance() public view returns(uint){\r\n     require(msg.sender==manager);\r\n         return address(this).balance;\r\n     }\r\n     function random() public view returns(uint){\r\n      return uint(keccak256(abi.encodePacked(block.difficulty,block.timestamp,players.length)));\r\n     }\r\n     function pickWinner() public{\r\n     require(msg.sender==manager);\r\n     require(players.length>=3);\r\n     uint r =random();\r\n     uint index= r%players.length;\r\n     winner=players[index];\r\n     winner.transfer(getBalance());\r\n     players=new address payable[](0);\r\n }\r\n   function allPlayers() public view returns(address payable[] memory){\r\n       return players;\r\n   }}\r\n",
  "sourcePath": "C:\\Users\\prath\\Desktop\\lottery\\web3lab\\contracts\\Lottery.sol",
  "compiler": {
    "name": "solc",
    "version": "0.8.11+commit.d7f03943.Emscripten.clang"
  },
  "schemaVersion": "3.4.13",
  "updatedAt": "2023-03-17T09:06:58.502Z",
  "networkType": "ethereum",
  "devdoc": {
    "kind": "dev",
    "methods": {},
    "version": 1
  },
  "userdoc": {
    "kind": "user",
    "methods": {},
    "version": 1
  }
}